{
  "contractName": "AdBank",
  "abi": [
    {
      "constant": false,
      "inputs": [],
      "name": "end_ICO",
      "outputs": [],
      "payable": false,
      "stateMutability": "nonpayable",
      "type": "function"
    },
    {
      "constant": true,
      "inputs": [],
      "name": "name",
      "outputs": [
        {
          "name": "",
          "type": "string"
        }
      ],
      "payable": false,
      "stateMutability": "view",
      "type": "function"
    },
    {
      "constant": false,
      "inputs": [
        {
          "name": "_spender",
          "type": "address"
        },
        {
          "name": "_amount",
          "type": "uint256"
        }
      ],
      "name": "approve",
      "outputs": [
        {
          "name": "ok",
          "type": "bool"
        }
      ],
      "payable": false,
      "stateMutability": "nonpayable",
      "type": "function"
    },
    {
      "constant": true,
      "inputs": [],
      "name": "totalSupply",
      "outputs": [
        {
          "name": "total_Supply",
          "type": "uint256"
        }
      ],
      "payable": false,
      "stateMutability": "view",
      "type": "function"
    },
    {
      "constant": false,
      "inputs": [
        {
          "name": "_from",
          "type": "address"
        },
        {
          "name": "_to",
          "type": "address"
        },
        {
          "name": "_amount",
          "type": "uint256"
        }
      ],
      "name": "transferFrom",
      "outputs": [
        {
          "name": "ok",
          "type": "bool"
        }
      ],
      "payable": false,
      "stateMutability": "nonpayable",
      "type": "function"
    },
    {
      "constant": true,
      "inputs": [],
      "name": "decimals",
      "outputs": [
        {
          "name": "",
          "type": "uint8"
        }
      ],
      "payable": false,
      "stateMutability": "view",
      "type": "function"
    },
    {
      "constant": false,
      "inputs": [],
      "name": "EmergencyStop",
      "outputs": [],
      "payable": false,
      "stateMutability": "nonpayable",
      "type": "function"
    },
    {
      "constant": false,
      "inputs": [],
      "name": "ResumeEmergencyStop",
      "outputs": [],
      "payable": false,
      "stateMutability": "nonpayable",
      "type": "function"
    },
    {
      "constant": false,
      "inputs": [],
      "name": "StartICO",
      "outputs": [],
      "payable": false,
      "stateMutability": "nonpayable",
      "type": "function"
    },
    {
      "constant": true,
      "inputs": [
        {
          "name": "_owner",
          "type": "address"
        }
      ],
      "name": "balanceOf",
      "outputs": [
        {
          "name": "balance",
          "type": "uint256"
        }
      ],
      "payable": false,
      "stateMutability": "view",
      "type": "function"
    },
    {
      "constant": true,
      "inputs": [],
      "name": "eth_received",
      "outputs": [
        {
          "name": "",
          "type": "uint256"
        }
      ],
      "payable": false,
      "stateMutability": "view",
      "type": "function"
    },
    {
      "constant": true,
      "inputs": [],
      "name": "owner",
      "outputs": [
        {
          "name": "",
          "type": "address"
        }
      ],
      "payable": false,
      "stateMutability": "view",
      "type": "function"
    },
    {
      "constant": true,
      "inputs": [],
      "name": "symbol",
      "outputs": [
        {
          "name": "",
          "type": "string"
        }
      ],
      "payable": false,
      "stateMutability": "view",
      "type": "function"
    },
    {
      "constant": false,
      "inputs": [],
      "name": "drain",
      "outputs": [],
      "payable": false,
      "stateMutability": "nonpayable",
      "type": "function"
    },
    {
      "constant": false,
      "inputs": [
        {
          "name": "_to",
          "type": "address"
        },
        {
          "name": "_amount",
          "type": "uint256"
        }
      ],
      "name": "transfer",
      "outputs": [
        {
          "name": "ok",
          "type": "bool"
        }
      ],
      "payable": false,
      "stateMutability": "nonpayable",
      "type": "function"
    },
    {
      "constant": true,
      "inputs": [],
      "name": "stage",
      "outputs": [
        {
          "name": "",
          "type": "uint8"
        }
      ],
      "payable": false,
      "stateMutability": "view",
      "type": "function"
    },
    {
      "constant": true,
      "inputs": [
        {
          "name": "_owner",
          "type": "address"
        },
        {
          "name": "_spender",
          "type": "address"
        }
      ],
      "name": "allowance",
      "outputs": [
        {
          "name": "remaining",
          "type": "uint256"
        }
      ],
      "payable": false,
      "stateMutability": "view",
      "type": "function"
    },
    {
      "constant": false,
      "inputs": [
        {
          "name": "newOwner",
          "type": "address"
        }
      ],
      "name": "transferOwnership",
      "outputs": [],
      "payable": false,
      "stateMutability": "nonpayable",
      "type": "function"
    },
    {
      "inputs": [],
      "payable": false,
      "stateMutability": "nonpayable",
      "type": "constructor"
    },
    {
      "payable": true,
      "stateMutability": "payable",
      "type": "fallback"
    },
    {
      "anonymous": false,
      "inputs": [
        {
          "indexed": true,
          "name": "_from",
          "type": "address"
        },
        {
          "indexed": true,
          "name": "_to",
          "type": "address"
        },
        {
          "indexed": false,
          "name": "_amount",
          "type": "uint256"
        }
      ],
      "name": "Transfer",
      "type": "event"
    },
    {
      "anonymous": false,
      "inputs": [
        {
          "indexed": true,
          "name": "_owner",
          "type": "address"
        },
        {
          "indexed": true,
          "name": "_spender",
          "type": "address"
        },
        {
          "indexed": false,
          "name": "_amount",
          "type": "uint256"
        }
      ],
      "name": "Approval",
      "type": "event"
    }
  ],
  "bytecode": "0x60606040526b033b2e3c9fd0803ce800000060005560018060146101000a81548160ff0219169083151502179055506000600a60006101000a81548160ff021916908315150217905550341561005457600080fd5b33600160006101000a81548173ffffffffffffffffffffffffffffffffffffffff021916908373ffffffffffffffffffffffffffffffffffffffff16021790555060005460056000600160009054906101000a900473ffffffffffffffffffffffffffffffffffffffff1673ffffffffffffffffffffffffffffffffffffffff1673ffffffffffffffffffffffffffffffffffffffff168152602001908152602001600020819055506000600760006101000a81548160ff0219169083600381111561011c57fe5b0217905550600160009054906101000a900473ffffffffffffffffffffffffffffffffffffffff1673ffffffffffffffffffffffffffffffffffffffff1660007fddf252ad1be2c89b69c2b068fc378daa952ba7f163c4a11628f55a4df523b3ef60056000600160009054906101000a900473ffffffffffffffffffffffffffffffffffffffff1673ffffffffffffffffffffffffffffffffffffffff1673ffffffffffffffffffffffffffffffffffffffff168152602001908152602001600020546040518082815260200191505060405180910390a36116a1806102036000396000f3006060604052600436106100fc576000357c0100000000000000000000000000000000000000000000000000000000900463ffffffff16806302c3d7f61461025957806306fdde031461026e578063095ea7b3146102fc57806318160ddd1461035657806323b872dd1461037f578063313ce567146103f85780634e97bcfc1461042757806353c3cc1f1461043c5780636a6b80771461045157806370a08231146104665780638666107c146104b35780638da5cb5b146104dc57806395d89b41146105315780639890220b146105bf578063a9059cbb146105d4578063c040e6b81461062e578063dd62ed3e14610665578063f2fde38b146106d1575b600180600381111561010a57fe5b600760009054906101000a900460ff16600381111561012557fe5b14151561013157600080fd5b6909513ea9de024380000060085410151561014b57600080fd5b600a60009054906101000a900460ff161580156101755750600160149054906101000a900460ff16155b801561018357506004544211155b151561018e57600080fd5b6101a33460025461070a90919063ffffffff16565b6008819055506909513ea9de0243800000600854111561023a576101dc6909513ea9de024380000060085461072890919063ffffffff16565b6009819055503373ffffffffffffffffffffffffffffffffffffffff166108fc6009549081150290604051600060405180830381858888f19350505050151561022457600080fd5b6909513ea9de0243800000600281905550610256565b61024f3460025461070a90919063ffffffff16565b6002819055505b50005b341561026457600080fd5b61026c610741565b005b341561027957600080fd5b610281610824565b6040518080602001828103825283818151815260200191508051906020019080838360005b838110156102c15780820151818401526020810190506102a6565b50505050905090810190601f1680156102ee5780820380516001836020036101000a031916815260200191505b509250505060405180910390f35b341561030757600080fd5b61033c600480803573ffffffffffffffffffffffffffffffffffffffff1690602001909190803590602001909190505061085d565b604051808215151515815260200191505060405180910390f35b341561036157600080fd5b610369610974565b6040518082815260200191505060405180910390f35b341561038a57600080fd5b6103de600480803573ffffffffffffffffffffffffffffffffffffffff1690602001909190803573ffffffffffffffffffffffffffffffffffffffff1690602001909190803590602001909190505061097d565b604051808215151515815260200191505060405180910390f35b341561040357600080fd5b61040b610d30565b604051808260ff1660ff16815260200191505060405180910390f35b341561043257600080fd5b61043a610d35565b005b341561044757600080fd5b61044f610e07565b005b341561045c57600080fd5b610464610eda565b005b341561047157600080fd5b61049d600480803573ffffffffffffffffffffffffffffffffffffffff16906020019091905050610fd0565b6040518082815260200191505060405180910390f35b34156104be57600080fd5b6104c6611019565b6040518082815260200191505060405180910390f35b34156104e757600080fd5b6104ef61101f565b604051808273ffffffffffffffffffffffffffffffffffffffff1673ffffffffffffffffffffffffffffffffffffffff16815260200191505060405180910390f35b341561053c57600080fd5b610544611045565b6040518080602001828103825283818151815260200191508051906020019080838360005b83811015610584578082015181840152602081019050610569565b50505050905090810190601f1680156105b15780820380516001836020036101000a031916815260200191505b509250505060405180910390f35b34156105ca57600080fd5b6105d261107e565b005b34156105df57600080fd5b610614600480803573ffffffffffffffffffffffffffffffffffffffff16906020019091908035906020019091905050611155565b604051808215151515815260200191505060405180910390f35b341561063957600080fd5b610641611370565b6040518082600381111561065157fe5b60ff16815260200191505060405180910390f35b341561067057600080fd5b6106bb600480803573ffffffffffffffffffffffffffffffffffffffff1690602001909190803573ffffffffffffffffffffffffffffffffffffffff16906020019091905050611383565b6040518082815260200191505060405180910390f35b34156106dc57600080fd5b610708600480803573ffffffffffffffffffffffffffffffffffffffff16906020019091905050611452565b005b600080828401905083811015151561071e57fe5b8091505092915050565b600082821115151561073657fe5b818303905092915050565b600160009054906101000a900473ffffffffffffffffffffffffffffffffffffffff1673ffffffffffffffffffffffffffffffffffffffff163373ffffffffffffffffffffffffffffffffffffffff1614151561079d57600080fd5b60018060038111156107ab57fe5b600760009054906101000a900460ff1660038111156107c657fe5b1415156107d257600080fd5b600454421115156107e257600080fd5b6001600a60006101000a81548160ff0219169083151502179055506003600760006101000a81548160ff0219169083600381111561081c57fe5b021790555050565b6040805190810160405280600681526020017f416442616e6b000000000000000000000000000000000000000000000000000081525081565b6000808373ffffffffffffffffffffffffffffffffffffffff161415151561088457600080fd5b81600660003373ffffffffffffffffffffffffffffffffffffffff1673ffffffffffffffffffffffffffffffffffffffff16815260200190815260200160002060008573ffffffffffffffffffffffffffffffffffffffff1673ffffffffffffffffffffffffffffffffffffffff168152602001908152602001600020819055508273ffffffffffffffffffffffffffffffffffffffff163373ffffffffffffffffffffffffffffffffffffffff167f8c5be1e5ebec7d5bd14f71427d1e84f3dd0314c0f7b2291e5b200ac8c7c3b925846040518082815260200191505060405180910390a36001905092915050565b60008054905090565b6000808373ffffffffffffffffffffffffffffffffffffffff16141515156109a457600080fd5b81600560008673ffffffffffffffffffffffffffffffffffffffff1673ffffffffffffffffffffffffffffffffffffffff1681526020019081526020016000205410158015610a6f575081600660008673ffffffffffffffffffffffffffffffffffffffff1673ffffffffffffffffffffffffffffffffffffffff16815260200190815260200160002060003373ffffffffffffffffffffffffffffffffffffffff1673ffffffffffffffffffffffffffffffffffffffff1681526020019081526020016000205410155b8015610a7c575060008210155b1515610a8757600080fd5b610ad982600560008773ffffffffffffffffffffffffffffffffffffffff1673ffffffffffffffffffffffffffffffffffffffff1681526020019081526020016000205461072890919063ffffffff16565b600560008673ffffffffffffffffffffffffffffffffffffffff1673ffffffffffffffffffffffffffffffffffffffff16815260200190815260200160002081905550610bab82600660008773ffffffffffffffffffffffffffffffffffffffff1673ffffffffffffffffffffffffffffffffffffffff16815260200190815260200160002060003373ffffffffffffffffffffffffffffffffffffffff1673ffffffffffffffffffffffffffffffffffffffff1681526020019081526020016000205461072890919063ffffffff16565b600660008673ffffffffffffffffffffffffffffffffffffffff1673ffffffffffffffffffffffffffffffffffffffff16815260200190815260200160002060003373ffffffffffffffffffffffffffffffffffffffff1673ffffffffffffffffffffffffffffffffffffffff16815260200190815260200160002081905550610c7d82600560008673ffffffffffffffffffffffffffffffffffffffff1673ffffffffffffffffffffffffffffffffffffffff1681526020019081526020016000205461070a90919063ffffffff16565b600560008573ffffffffffffffffffffffffffffffffffffffff1673ffffffffffffffffffffffffffffffffffffffff168152602001908152602001600020819055508273ffffffffffffffffffffffffffffffffffffffff168473ffffffffffffffffffffffffffffffffffffffff167fddf252ad1be2c89b69c2b068fc378daa952ba7f163c4a11628f55a4df523b3ef846040518082815260200191505060405180910390a3600190509392505050565b601281565b600160009054906101000a900473ffffffffffffffffffffffffffffffffffffffff1673ffffffffffffffffffffffffffffffffffffffff163373ffffffffffffffffffffffffffffffffffffffff16141515610d9157600080fd5b6001806003811115610d9f57fe5b600760009054906101000a900460ff166003811115610dba57fe5b141515610dc657600080fd5b60018060146101000a81548160ff0219169083151502179055506002600760006101000a81548160ff02191690836003811115610dff57fe5b021790555050565b600160009054906101000a900473ffffffffffffffffffffffffffffffffffffffff1673ffffffffffffffffffffffffffffffffffffffff163373ffffffffffffffffffffffffffffffffffffffff16141515610e6357600080fd5b6002806003811115610e7157fe5b600760009054906101000a900460ff166003811115610e8c57fe5b141515610e9857600080fd5b6000600160146101000a81548160ff0219169083151502179055506001600760006101000a81548160ff02191690836003811115610ed257fe5b021790555050565b600160009054906101000a900473ffffffffffffffffffffffffffffffffffffffff1673ffffffffffffffffffffffffffffffffffffffff163373ffffffffffffffffffffffffffffffffffffffff16141515610f3657600080fd5b6000806003811115610f4457fe5b600760009054906101000a900460ff166003811115610f5f57fe5b141515610f6b57600080fd5b6001600760006101000a81548160ff02191690836003811115610f8a57fe5b02179055506000600160146101000a81548160ff02191690831515021790555042600381905550610fc762336a804261070a90919063ffffffff16565b60048190555050565b6000600560008373ffffffffffffffffffffffffffffffffffffffff1673ffffffffffffffffffffffffffffffffffffffff168152602001908152602001600020549050919050565b60025481565b600160009054906101000a900473ffffffffffffffffffffffffffffffffffffffff1681565b6040805190810160405280600381526020017f414442000000000000000000000000000000000000000000000000000000000081525081565b600160009054906101000a900473ffffffffffffffffffffffffffffffffffffffff1673ffffffffffffffffffffffffffffffffffffffff163373ffffffffffffffffffffffffffffffffffffffff161415156110da57600080fd5b600160009054906101000a900473ffffffffffffffffffffffffffffffffffffffff1673ffffffffffffffffffffffffffffffffffffffff166108fc3073ffffffffffffffffffffffffffffffffffffffff16319081150290604051600060405180830381858888f19350505050151561115357600080fd5b565b6000808373ffffffffffffffffffffffffffffffffffffffff161415151561117c57600080fd5b81600560003373ffffffffffffffffffffffffffffffffffffffff1673ffffffffffffffffffffffffffffffffffffffff16815260200190815260200160002054101580156111cc575060008210155b15156111d757600080fd5b61122982600560003373ffffffffffffffffffffffffffffffffffffffff1673ffffffffffffffffffffffffffffffffffffffff1681526020019081526020016000205461072890919063ffffffff16565b600560003373ffffffffffffffffffffffffffffffffffffffff1673ffffffffffffffffffffffffffffffffffffffff168152602001908152602001600020819055506112be82600560008673ffffffffffffffffffffffffffffffffffffffff1673ffffffffffffffffffffffffffffffffffffffff1681526020019081526020016000205461070a90919063ffffffff16565b600560008573ffffffffffffffffffffffffffffffffffffffff1673ffffffffffffffffffffffffffffffffffffffff168152602001908152602001600020819055508273ffffffffffffffffffffffffffffffffffffffff163373ffffffffffffffffffffffffffffffffffffffff167fddf252ad1be2c89b69c2b068fc378daa952ba7f163c4a11628f55a4df523b3ef846040518082815260200191505060405180910390a36001905092915050565b600760009054906101000a900460ff1681565b6000808373ffffffffffffffffffffffffffffffffffffffff16141580156113c2575060008273ffffffffffffffffffffffffffffffffffffffff1614155b15156113cd57600080fd5b600660008473ffffffffffffffffffffffffffffffffffffffff1673ffffffffffffffffffffffffffffffffffffffff16815260200190815260200160002060008373ffffffffffffffffffffffffffffffffffffffff1673ffffffffffffffffffffffffffffffffffffffff16815260200190815260200160002054905092915050565b600160009054906101000a900473ffffffffffffffffffffffffffffffffffffffff1673ffffffffffffffffffffffffffffffffffffffff163373ffffffffffffffffffffffffffffffffffffffff161415156114ae57600080fd5b60008173ffffffffffffffffffffffffffffffffffffffff16141515156114d457600080fd5b61158760056000600160009054906101000a900473ffffffffffffffffffffffffffffffffffffffff1673ffffffffffffffffffffffffffffffffffffffff1673ffffffffffffffffffffffffffffffffffffffff16815260200190815260200160002054600560008473ffffffffffffffffffffffffffffffffffffffff1673ffffffffffffffffffffffffffffffffffffffff1681526020019081526020016000205461070a90919063ffffffff16565b600560008373ffffffffffffffffffffffffffffffffffffffff1673ffffffffffffffffffffffffffffffffffffffff16815260200190815260200160002081905550600060056000600160009054906101000a900473ffffffffffffffffffffffffffffffffffffffff1673ffffffffffffffffffffffffffffffffffffffff1673ffffffffffffffffffffffffffffffffffffffff1681526020019081526020016000208190555080600160006101000a81548173ffffffffffffffffffffffffffffffffffffffff021916908373ffffffffffffffffffffffffffffffffffffffff160217905550505600a165627a7a72305820fef8ab278e6d88df4a42bdc30f44590236fc07455bb12cacf6b464e8c03173c10029",
  "source": "pragma solidity 0.4.18;\n\n/**\n * @title SafeMath\n * @dev Math operations with safety checks that throw on error\n */\nlibrary SafeMath {\n  function mul(uint256 a, uint256 b) internal pure returns (uint256) {\n    if (a == 0) {\n      return 0;\n    }\n    uint256 c = a * b;\n    assert(c / a == b);\n    return c;\n  }\n\n  function div(uint256 a, uint256 b) internal pure returns (uint256) {\n    // assert(b > 0); // Solidity automatically throws when dividing by 0\n    uint256 c = a / b;\n    // assert(a == b * c + a % b); // There is no case in which this doesn't hold\n    return c;\n  }\n\n  function sub(uint256 a, uint256 b) internal pure returns (uint256) {\n    assert(b <= a);\n    return a - b;\n  }\n\n  function add(uint256 a, uint256 b) internal pure returns (uint256) {\n    uint256 c = a + b;\n    assert(c >= a);\n    return c;\n  }\n}\n\n  contract ERC20 {\n  function totalSupply()public view returns (uint total_Supply);\n  function balanceOf(address _owner)public view returns (uint256 balance);\n  function allowance(address _owner, address _spender)public view returns (uint remaining);\n  function transferFrom(address _from, address _to, uint _amount)public returns (bool ok);\n  function approve(address _spender, uint _amount)public returns (bool ok);\n  function transfer(address _to, uint _amount)public returns (bool ok);\n  event Transfer(address indexed _from, address indexed _to, uint _amount);\n  event Approval(address indexed _owner, address indexed _spender, uint _amount);\n}\n\n\ncontract AdBank is ERC20\n{ using SafeMath for uint256;\n\n   string public constant symbol = \"ADB\";\n   string public constant name = \"AdBank\";\n   uint8 public constant decimals = 18;\n   uint256 _totalSupply = (1000000000) * (10 **18); //1 billion total supply\n      \n     // Owner of this contract\n    address public owner;\n    bool stopped = true;\n    // total ether received in the contract\n    uint256 public eth_received;\n    // ico startdate\n    uint256 startdate;\n    //ico enddate;\n    uint256 enddate;\n  \n     // Balances for each account\n     mapping(address => uint256) balances;\n  \n     // Owner of account approves the transfer of an amount to another account\n     mapping(address => mapping (address => uint256)) allowed;\n \n      enum Stages {\n        NOTSTARTED,\n        ICO,\n        PAUSED,\n        ENDED\n    }\n    \n    Stages public stage;\n    uint256 received;\n    uint256 refund;\n    bool ico_ended = false;\n\n// Functions with this modifier can only be executed by the owner\n     modifier onlyOwner() {\n         require (msg.sender == owner);\n          _;\n     }\n     \n    modifier atStage(Stages _stage) {\n        require(stage == _stage);\n        _;\n    }\n  \n     // Constructor\n     function AdBank() public {\n         owner = msg.sender;\n         balances[owner] = _totalSupply;\n         stage = Stages.NOTSTARTED;\n         Transfer(0, owner, balances[owner]);\n     }\n     \n     \n     function () public payable atStage(Stages.ICO)\n    {\n       \n        require(received < 44000 ether);\n        require(!ico_ended && !stopped && now <= enddate);\n        received = (eth_received).add(msg.value);\n        if (received > 44000 ether){\n        refund = received.sub(44000 ether);\n        msg.sender.transfer(refund);\n        eth_received = 44000 ether;\n        }\n        else {\n            eth_received = (eth_received).add(msg.value);\n        }\n        \n    }\n   \n    function StartICO() external onlyOwner atStage(Stages.NOTSTARTED) \n    {\n        stage = Stages.ICO;\n        stopped = false;\n        startdate = now;\n        enddate = now.add(39 days);\n    }\n    \n    function EmergencyStop() external onlyOwner atStage(Stages.ICO)\n    {\n        stopped = true;\n        stage = Stages.PAUSED;\n    }\n    \n    function ResumeEmergencyStop() external onlyOwner atStage(Stages.PAUSED)\n    {\n        stopped = false;\n        stage = Stages.ICO;\n    }\n    \n     function end_ICO() external onlyOwner atStage(Stages.ICO)\n     {\n         require(now > enddate);\n         ico_ended = true;\n         stage = Stages.ENDED;\n     }\n  \n   function drain() external onlyOwner {\n        owner.transfer(this.balance);\n    }\n\n    // what is the total supply of the ech tokens\n     function totalSupply() public view returns (uint256 total_Supply) {\n         total_Supply = _totalSupply;\n     }\n  \n     // What is the balance of a particular account?\n     function balanceOf(address _owner)public view returns (uint256 balance) {\n         return balances[_owner];\n     }\n  \n     // Transfer the balance from owner's account to another account\n     function transfer(address _to, uint256 _amount)public returns (bool ok) {\n        require( _to != 0x0);\n        require(balances[msg.sender] >= _amount && _amount >= 0);\n        balances[msg.sender] = (balances[msg.sender]).sub(_amount);\n        balances[_to] = (balances[_to]).add(_amount);\n        Transfer(msg.sender, _to, _amount);\n             return true;\n         }\n  \n     // Send _value amount of tokens from address _from to address _to\n     // The transferFrom method is used for a withdraw workflow, allowing contracts to send\n     // tokens on your behalf, for example to \"deposit\" to a contract address and/or to charge\n     // fees in sub-currencies; the command should fail unless the _from account has\n     // deliberately authorized the sender of the message via some mechanism; we propose\n     // these standardized APIs for approval:\n     function transferFrom( address _from, address _to, uint256 _amount )public returns (bool ok) {\n     require( _to != 0x0);\n     require(balances[_from] >= _amount && allowed[_from][msg.sender] >= _amount && _amount >= 0);\n     balances[_from] = (balances[_from]).sub(_amount);\n     allowed[_from][msg.sender] = (allowed[_from][msg.sender]).sub(_amount);\n     balances[_to] = (balances[_to]).add(_amount);\n     Transfer(_from, _to, _amount);\n     return true;\n         }\n \n     // Allow _spender to withdraw from your account, multiple times, up to the _value amount.\n     // If this function is called again it overwrites the current allowance with _value.\n     function approve(address _spender, uint256 _amount)public returns (bool ok) {\n         require( _spender != 0x0);\n         allowed[msg.sender][_spender] = _amount;\n         Approval(msg.sender, _spender, _amount);\n         return true;\n     }\n  \n     function allowance(address _owner, address _spender)public view returns (uint256 remaining) {\n         require( _owner != 0x0 && _spender !=0x0);\n         return allowed[_owner][_spender];\n   }\n   \n   //In case the ownership needs to be transferred\n\tfunction transferOwnership(address newOwner)public onlyOwner\n\t{\n\t    require( newOwner != 0x0);\n\t    balances[newOwner] = (balances[newOwner]).add(balances[owner]);\n\t    balances[owner] = 0;\n\t    owner = newOwner;\n\t}\n\n}",
  "sourcePath": "/Projects/adbank-token-network/contracts/New_AdBank.sol",
  "compiler": {
    "name": "solc",
    "version": "0.4.18+commit.9cf6e910.Emscripten.clang"
  },
  "schemaVersion": "1.0.1",
  "updatedAt": "2018-02-06T15:02:45.983Z"
}